{
  "contractName": "TodoList",
  "abi": [
    {
      "inputs": [],
      "stateMutability": "nonpayable",
      "type": "constructor"
    },
    {
      "anonymous": false,
      "inputs": [
        {
          "indexed": false,
          "internalType": "uint256",
          "name": "id",
          "type": "uint256"
        },
        {
          "indexed": false,
          "internalType": "string",
          "name": "content",
          "type": "string"
        },
        {
          "indexed": false,
          "internalType": "bool",
          "name": "completed",
          "type": "bool"
        }
      ],
      "name": "TaskCreated",
      "type": "event"
    },
    {
      "inputs": [],
      "name": "count",
      "outputs": [
        {
          "internalType": "uint256",
          "name": "",
          "type": "uint256"
        }
      ],
      "stateMutability": "view",
      "type": "function",
      "constant": true
    },
    {
      "inputs": [
        {
          "internalType": "uint256",
          "name": "",
          "type": "uint256"
        }
      ],
      "name": "list",
      "outputs": [
        {
          "internalType": "uint256",
          "name": "id",
          "type": "uint256"
        },
        {
          "internalType": "string",
          "name": "content",
          "type": "string"
        },
        {
          "internalType": "bool",
          "name": "completed",
          "type": "bool"
        }
      ],
      "stateMutability": "view",
      "type": "function",
      "constant": true
    },
    {
      "inputs": [],
      "name": "name",
      "outputs": [
        {
          "internalType": "string",
          "name": "",
          "type": "string"
        }
      ],
      "stateMutability": "view",
      "type": "function",
      "constant": true
    },
    {
      "inputs": [
        {
          "internalType": "string",
          "name": "_content",
          "type": "string"
        }
      ],
      "name": "createTask",
      "outputs": [],
      "stateMutability": "nonpayable",
      "type": "function"
    }
  ],
  "bytecode": "0x6080604052600060015534801561001557600080fd5b506040518060400160405280600681526020017f64656570616b0000000000000000000000000000000000000000000000000000815250600090805190602001906100619291906101f0565b506100a66040518060400160405280600b81526020017f63616c6c20646f63746f720000000000000000000000000000000000000000008152506100ab60201b60201c565b61029b565b60016000815480929190600101919050555060405180606001604052806001548152602001828152602001600015158152506002600060015481526020019081526020016000206000820151816000015560208201518160010190805190602001906101189291906101f0565b5060408201518160020160006101000a81548160ff0219169083151502179055509050507f05d0fb833127fc08168556d0e7ca9554fc3f6bc843b3b7d2bf1c35aea6bab66060015482600060405180848152602001806020018315158152602001828103825284818151815260200191508051906020019080838360005b838110156101b1578082015181840152602081019050610196565b50505050905090810190601f1680156101de5780820380516001836020036101000a031916815260200191505b5094505050505060405180910390a150565b828054600181600116156101000203166002900490600052602060002090601f016020900481019282610226576000855561026d565b82601f1061023f57805160ff191683800117855561026d565b8280016001018555821561026d579182015b8281111561026c578251825591602001919060010190610251565b5b50905061027a919061027e565b5090565b5b8082111561029757600081600090555060010161027f565b5090565b6105fd806102aa6000396000f3fe608060405234801561001057600080fd5b506004361061004c5760003560e01c806306661abd1461005157806306fdde031461006f578063111002aa146100f257806380c9419e146101ad575b600080fd5b610059610264565b6040518082815260200191505060405180910390f35b61007761026a565b6040518080602001828103825283818151815260200191508051906020019080838360005b838110156100b757808201518184015260208101905061009c565b50505050905090810190601f1680156100e45780820380516001836020036101000a031916815260200191505b509250505060405180910390f35b6101ab6004803603602081101561010857600080fd5b810190808035906020019064010000000081111561012557600080fd5b82018360208201111561013757600080fd5b8035906020019184600183028401116401000000008311171561015957600080fd5b91908080601f016020809104026020016040519081016040528093929190818152602001838380828437600081840152601f19601f820116905080830192505050505050509192919290505050610308565b005b6101d9600480360360208110156101c357600080fd5b810190808035906020019092919050505061044d565b60405180848152602001806020018315158152602001828103825284818151815260200191508051906020019080838360005b8381101561022757808201518184015260208101905061020c565b50505050905090810190601f1680156102545780820380516001836020036101000a031916815260200191505b5094505050505060405180910390f35b60015481565b60008054600181600116156101000203166002900480601f0160208091040260200160405190810160405280929190818152602001828054600181600116156101000203166002900480156103005780601f106102d557610100808354040283529160200191610300565b820191906000526020600020905b8154815290600101906020018083116102e357829003601f168201915b505050505081565b600160008154809291906001019190505550604051806060016040528060015481526020018281526020016000151581525060026000600154815260200190815260200160002060008201518160000155602082015181600101908051906020019061037592919061051c565b5060408201518160020160006101000a81548160ff0219169083151502179055509050507f05d0fb833127fc08168556d0e7ca9554fc3f6bc843b3b7d2bf1c35aea6bab66060015482600060405180848152602001806020018315158152602001828103825284818151815260200191508051906020019080838360005b8381101561040e5780820151818401526020810190506103f3565b50505050905090810190601f16801561043b5780820380516001836020036101000a031916815260200191505b5094505050505060405180910390a150565b6002602052806000526040600020600091509050806000015490806001018054600181600116156101000203166002900480601f0160208091040260200160405190810160405280929190818152602001828054600181600116156101000203166002900480156104ff5780601f106104d4576101008083540402835291602001916104ff565b820191906000526020600020905b8154815290600101906020018083116104e257829003601f168201915b5050505050908060020160009054906101000a900460ff16905083565b828054600181600116156101000203166002900490600052602060002090601f0160209004810192826105525760008555610599565b82601f1061056b57805160ff1916838001178555610599565b82800160010185558215610599579182015b8281111561059857825182559160200191906001019061057d565b5b5090506105a691906105aa565b5090565b5b808211156105c35760008160009055506001016105ab565b509056fea26469706673582212202312fd17e938285db127065d6a313a3ed2ff2aaf9ff2a60f09e5ed1413fbdcf264736f6c63430007060033",
  "immutableReferences": {},
  "source": "// SPDX-License-Identifier: MIT\npragma solidity >=0.7.0 <0.9.0;\n\ncontract TodoList {\n  string public name;\n  uint public count = 0;\n\n  struct List {\n    uint id;\n    string content;\n    bool completed;\n  }\n\n  mapping(uint => List) public list;\n\n  event TaskCreated (\n    uint id,\n    string content,\n    bool completed\n  );\n\n\n  constructor() {\n    name = \"deepak\";\n    createTask(\"call doctor\");\n  }\n\n  function createTask(string memory _content) public {\n    count ++;\n    list[count] = List(count, _content, false);\n    emit TaskCreated(count, _content, false);\n  }\n\n\n\n\n}\n",
  "sourcePath": "/Volumes/Projects/blockchain/projects/eth-todo-list/contracts/TodoList.sol",
  "compiler": {
    "name": "solc",
    "version": "0.7.6+commit.7338295f.Emscripten.clang"
  },
  "schemaVersion": "3.4.16",
  "updatedAt": "2024-07-18T13:01:14.888Z",
  "networkType": "ethereum",
  "devdoc": {
    "kind": "dev",
    "methods": {},
    "version": 1
  },
  "userdoc": {
    "kind": "user",
    "methods": {},
    "version": 1
  }
}