{
  "contractName": "TodoList",
  "abi": [
    {
      "inputs": [],
      "stateMutability": "nonpayable",
      "type": "constructor"
    },
    {
      "inputs": [],
      "name": "count",
      "outputs": [
        {
          "internalType": "uint256",
          "name": "",
          "type": "uint256"
        }
      ],
      "stateMutability": "view",
      "type": "function",
      "constant": true
    },
    {
      "inputs": [
        {
          "internalType": "uint256",
          "name": "",
          "type": "uint256"
        }
      ],
      "name": "list",
      "outputs": [
        {
          "internalType": "uint256",
          "name": "id",
          "type": "uint256"
        },
        {
          "internalType": "string",
          "name": "content",
          "type": "string"
        },
        {
          "internalType": "bool",
          "name": "completed",
          "type": "bool"
        }
      ],
      "stateMutability": "view",
      "type": "function",
      "constant": true
    },
    {
      "inputs": [],
      "name": "name",
      "outputs": [
        {
          "internalType": "string",
          "name": "",
          "type": "string"
        }
      ],
      "stateMutability": "view",
      "type": "function",
      "constant": true
    },
    {
      "inputs": [
        {
          "internalType": "string",
          "name": "_content",
          "type": "string"
        }
      ],
      "name": "createTask",
      "outputs": [],
      "stateMutability": "nonpayable",
      "type": "function"
    }
  ],
  "bytecode": "0x6080604052600060015534801561001557600080fd5b506040518060400160405280600681526020017f64656570616b00000000000000000000000000000000000000000000000000008152506000908051906020019061006192919061013f565b506100a66040518060400160405280600b81526020017f63616c6c20646f63746f720000000000000000000000000000000000000000008152506100ab60201b60201c565b6101ea565b600160008154809291906001019190505550604051806060016040528060015481526020018281526020016000151581525060026000600154815260200190815260200160002060008201518160000155602082015181600101908051906020019061011892919061013f565b5060408201518160020160006101000a81548160ff02191690831515021790555090505050565b828054600181600116156101000203166002900490600052602060002090601f01602090048101928261017557600085556101bc565b82601f1061018e57805160ff19168380011785556101bc565b828001600101855582156101bc579182015b828111156101bb5782518255916020019190600101906101a0565b5b5090506101c991906101cd565b5090565b5b808211156101e65760008160009055506001016101ce565b5090565b61054c806101f96000396000f3fe608060405234801561001057600080fd5b506004361061004c5760003560e01c806306661abd1461005157806306fdde031461006f578063111002aa146100f257806380c9419e146101ad575b600080fd5b610059610264565b6040518082815260200191505060405180910390f35b61007761026a565b6040518080602001828103825283818151815260200191508051906020019080838360005b838110156100b757808201518184015260208101905061009c565b50505050905090810190601f1680156100e45780820380516001836020036101000a031916815260200191505b509250505060405180910390f35b6101ab6004803603602081101561010857600080fd5b810190808035906020019064010000000081111561012557600080fd5b82018360208201111561013757600080fd5b8035906020019184600183028401116401000000008311171561015957600080fd5b91908080601f016020809104026020016040519081016040528093929190818152602001838380828437600081840152601f19601f820116905080830192505050505050509192919290505050610308565b005b6101d9600480360360208110156101c357600080fd5b810190808035906020019092919050505061039c565b60405180848152602001806020018315158152602001828103825284818151815260200191508051906020019080838360005b8381101561022757808201518184015260208101905061020c565b50505050905090810190601f1680156102545780820380516001836020036101000a031916815260200191505b5094505050505060405180910390f35b60015481565b60008054600181600116156101000203166002900480601f0160208091040260200160405190810160405280929190818152602001828054600181600116156101000203166002900480156103005780601f106102d557610100808354040283529160200191610300565b820191906000526020600020905b8154815290600101906020018083116102e357829003601f168201915b505050505081565b600160008154809291906001019190505550604051806060016040528060015481526020018281526020016000151581525060026000600154815260200190815260200160002060008201518160000155602082015181600101908051906020019061037592919061046b565b5060408201518160020160006101000a81548160ff02191690831515021790555090505050565b6002602052806000526040600020600091509050806000015490806001018054600181600116156101000203166002900480601f01602080910402602001604051908101604052809291908181526020018280546001816001161561010002031660029004801561044e5780601f106104235761010080835404028352916020019161044e565b820191906000526020600020905b81548152906001019060200180831161043157829003601f168201915b5050505050908060020160009054906101000a900460ff16905083565b828054600181600116156101000203166002900490600052602060002090601f0160209004810192826104a157600085556104e8565b82601f106104ba57805160ff19168380011785556104e8565b828001600101855582156104e8579182015b828111156104e75782518255916020019190600101906104cc565b5b5090506104f591906104f9565b5090565b5b808211156105125760008160009055506001016104fa565b509056fea2646970667358221220d323b2493a4eb449f7c652b4be85b041ec4f6df580b31e24ce2f0aedf54a658564736f6c63430007060033",
  "immutableReferences": {},
  "source": "// SPDX-License-Identifier: MIT\npragma solidity >=0.7.0 <0.9.0;\n\ncontract TodoList {\n  string public name;\n  uint public count = 0;\n\n  struct List {\n    uint id;\n    string content;\n    bool completed;\n  }\n\n  mapping(uint => List) public list;\n\n  // event TaskCreated (\n  //   uint id,\n  //   string content,\n  //   bool completed\n  // );\n\n\n  constructor() {\n    name = \"deepak\";\n    createTask(\"call doctor\");\n  }\n\n  function createTask(string memory _content) public {\n    count ++;\n    list[count] = List(count, _content, false);\n    // emit TaskCreated(count, _content, false);\n  }\n\n\n\n\n}\n",
  "sourcePath": "/Volumes/Projects/blockchain/projects/eth-todo-list/contracts/TodoList.sol",
  "compiler": {
    "name": "solc",
    "version": "0.7.6+commit.7338295f.Emscripten.clang"
  },
  "schemaVersion": "3.4.16",
  "updatedAt": "2024-07-18T06:00:26.100Z",
  "networkType": "ethereum",
  "devdoc": {
    "kind": "dev",
    "methods": {},
    "version": 1
  },
  "userdoc": {
    "kind": "user",
    "methods": {},
    "version": 1
  }
}